{
  "contractName": "Pixels",
  "abi": [
    {
      "inputs": [
        {
          "internalType": "uint48",
          "name": "_maxPixels",
          "type": "uint48"
        }
      ],
      "stateMutability": "nonpayable",
      "type": "constructor"
    },
    {
      "anonymous": false,
      "inputs": [
        {
          "indexed": true,
          "internalType": "address",
          "name": "owner",
          "type": "address"
        },
        {
          "indexed": true,
          "internalType": "address",
          "name": "approved",
          "type": "address"
        },
        {
          "indexed": true,
          "internalType": "uint256",
          "name": "tokenId",
          "type": "uint256"
        }
      ],
      "name": "Approval",
      "type": "event"
    },
    {
      "anonymous": false,
      "inputs": [
        {
          "indexed": true,
          "internalType": "address",
          "name": "owner",
          "type": "address"
        },
        {
          "indexed": true,
          "internalType": "address",
          "name": "operator",
          "type": "address"
        },
        {
          "indexed": false,
          "internalType": "bool",
          "name": "approved",
          "type": "bool"
        }
      ],
      "name": "ApprovalForAll",
      "type": "event"
    },
    {
      "anonymous": false,
      "inputs": [
        {
          "indexed": false,
          "internalType": "uint256",
          "name": "_position",
          "type": "uint256"
        },
        {
          "indexed": false,
          "internalType": "bytes6",
          "name": "_color",
          "type": "bytes6"
        }
      ],
      "name": "ColorPixel",
      "type": "event"
    },
    {
      "anonymous": false,
      "inputs": [
        {
          "indexed": false,
          "internalType": "uint256[]",
          "name": "_positions",
          "type": "uint256[]"
        },
        {
          "indexed": false,
          "internalType": "bytes6[]",
          "name": "_colors",
          "type": "bytes6[]"
        }
      ],
      "name": "ColorPixels",
      "type": "event"
    },
    {
      "anonymous": false,
      "inputs": [
        {
          "indexed": true,
          "internalType": "bytes32",
          "name": "role",
          "type": "bytes32"
        },
        {
          "indexed": true,
          "internalType": "bytes32",
          "name": "previousAdminRole",
          "type": "bytes32"
        },
        {
          "indexed": true,
          "internalType": "bytes32",
          "name": "newAdminRole",
          "type": "bytes32"
        }
      ],
      "name": "RoleAdminChanged",
      "type": "event"
    },
    {
      "anonymous": false,
      "inputs": [
        {
          "indexed": true,
          "internalType": "bytes32",
          "name": "role",
          "type": "bytes32"
        },
        {
          "indexed": true,
          "internalType": "address",
          "name": "account",
          "type": "address"
        },
        {
          "indexed": true,
          "internalType": "address",
          "name": "sender",
          "type": "address"
        }
      ],
      "name": "RoleGranted",
      "type": "event"
    },
    {
      "anonymous": false,
      "inputs": [
        {
          "indexed": true,
          "internalType": "bytes32",
          "name": "role",
          "type": "bytes32"
        },
        {
          "indexed": true,
          "internalType": "address",
          "name": "account",
          "type": "address"
        },
        {
          "indexed": true,
          "internalType": "address",
          "name": "sender",
          "type": "address"
        }
      ],
      "name": "RoleRevoked",
      "type": "event"
    },
    {
      "anonymous": false,
      "inputs": [
        {
          "indexed": true,
          "internalType": "address",
          "name": "from",
          "type": "address"
        },
        {
          "indexed": true,
          "internalType": "address",
          "name": "to",
          "type": "address"
        },
        {
          "indexed": true,
          "internalType": "uint256",
          "name": "tokenId",
          "type": "uint256"
        }
      ],
      "name": "Transfer",
      "type": "event"
    },
    {
      "anonymous": false,
      "inputs": [
        {
          "indexed": true,
          "internalType": "address",
          "name": "_from",
          "type": "address"
        },
        {
          "indexed": true,
          "internalType": "address",
          "name": "_to",
          "type": "address"
        },
        {
          "indexed": false,
          "internalType": "uint256[]",
          "name": "_tokenIds",
          "type": "uint256[]"
        }
      ],
      "name": "TransferBatch",
      "type": "event"
    },
    {
      "inputs": [],
      "name": "DEFAULT_ADMIN_ROLE",
      "outputs": [
        {
          "internalType": "bytes32",
          "name": "",
          "type": "bytes32"
        }
      ],
      "stateMutability": "view",
      "type": "function",
      "constant": true
    },
    {
      "inputs": [],
      "name": "MINTER_ROLE",
      "outputs": [
        {
          "internalType": "bytes32",
          "name": "",
          "type": "bytes32"
        }
      ],
      "stateMutability": "view",
      "type": "function",
      "constant": true
    },
    {
      "inputs": [
        {
          "internalType": "address",
          "name": "to",
          "type": "address"
        },
        {
          "internalType": "uint256",
          "name": "tokenId",
          "type": "uint256"
        }
      ],
      "name": "approve",
      "outputs": [],
      "stateMutability": "nonpayable",
      "type": "function"
    },
    {
      "inputs": [
        {
          "internalType": "address",
          "name": "owner",
          "type": "address"
        }
      ],
      "name": "balanceOf",
      "outputs": [
        {
          "internalType": "uint256",
          "name": "",
          "type": "uint256"
        }
      ],
      "stateMutability": "view",
      "type": "function",
      "constant": true
    },
    {
      "inputs": [],
      "name": "baseURI",
      "outputs": [
        {
          "internalType": "string",
          "name": "",
          "type": "string"
        }
      ],
      "stateMutability": "view",
      "type": "function",
      "constant": true
    },
    {
      "inputs": [
        {
          "internalType": "uint256",
          "name": "",
          "type": "uint256"
        }
      ],
      "name": "colors",
      "outputs": [
        {
          "internalType": "bytes6",
          "name": "",
          "type": "bytes6"
        }
      ],
      "stateMutability": "view",
      "type": "function",
      "constant": true
    },
    {
      "inputs": [
        {
          "internalType": "uint256",
          "name": "tokenId",
          "type": "uint256"
        }
      ],
      "name": "getApproved",
      "outputs": [
        {
          "internalType": "address",
          "name": "",
          "type": "address"
        }
      ],
      "stateMutability": "view",
      "type": "function",
      "constant": true
    },
    {
      "inputs": [
        {
          "internalType": "bytes32",
          "name": "role",
          "type": "bytes32"
        }
      ],
      "name": "getRoleAdmin",
      "outputs": [
        {
          "internalType": "bytes32",
          "name": "",
          "type": "bytes32"
        }
      ],
      "stateMutability": "view",
      "type": "function",
      "constant": true
    },
    {
      "inputs": [
        {
          "internalType": "bytes32",
          "name": "role",
          "type": "bytes32"
        },
        {
          "internalType": "uint256",
          "name": "index",
          "type": "uint256"
        }
      ],
      "name": "getRoleMember",
      "outputs": [
        {
          "internalType": "address",
          "name": "",
          "type": "address"
        }
      ],
      "stateMutability": "view",
      "type": "function",
      "constant": true
    },
    {
      "inputs": [
        {
          "internalType": "bytes32",
          "name": "role",
          "type": "bytes32"
        }
      ],
      "name": "getRoleMemberCount",
      "outputs": [
        {
          "internalType": "uint256",
          "name": "",
          "type": "uint256"
        }
      ],
      "stateMutability": "view",
      "type": "function",
      "constant": true
    },
    {
      "inputs": [
        {
          "internalType": "bytes32",
          "name": "role",
          "type": "bytes32"
        },
        {
          "internalType": "address",
          "name": "account",
          "type": "address"
        }
      ],
      "name": "grantRole",
      "outputs": [],
      "stateMutability": "nonpayable",
      "type": "function"
    },
    {
      "inputs": [
        {
          "internalType": "bytes32",
          "name": "role",
          "type": "bytes32"
        },
        {
          "internalType": "address",
          "name": "account",
          "type": "address"
        }
      ],
      "name": "hasRole",
      "outputs": [
        {
          "internalType": "bool",
          "name": "",
          "type": "bool"
        }
      ],
      "stateMutability": "view",
      "type": "function",
      "constant": true
    },
    {
      "inputs": [
        {
          "internalType": "address",
          "name": "owner",
          "type": "address"
        },
        {
          "internalType": "address",
          "name": "operator",
          "type": "address"
        }
      ],
      "name": "isApprovedForAll",
      "outputs": [
        {
          "internalType": "bool",
          "name": "",
          "type": "bool"
        }
      ],
      "stateMutability": "view",
      "type": "function",
      "constant": true
    },
    {
      "inputs": [],
      "name": "maxPixels",
      "outputs": [
        {
          "internalType": "uint48",
          "name": "",
          "type": "uint48"
        }
      ],
      "stateMutability": "view",
      "type": "function",
      "constant": true
    },
    {
      "inputs": [],
      "name": "name",
      "outputs": [
        {
          "internalType": "string",
          "name": "",
          "type": "string"
        }
      ],
      "stateMutability": "view",
      "type": "function",
      "constant": true
    },
    {
      "inputs": [
        {
          "internalType": "uint256",
          "name": "tokenId",
          "type": "uint256"
        }
      ],
      "name": "ownerOf",
      "outputs": [
        {
          "internalType": "address",
          "name": "",
          "type": "address"
        }
      ],
      "stateMutability": "view",
      "type": "function",
      "constant": true
    },
    {
      "inputs": [
        {
          "internalType": "bytes32",
          "name": "role",
          "type": "bytes32"
        },
        {
          "internalType": "address",
          "name": "account",
          "type": "address"
        }
      ],
      "name": "renounceRole",
      "outputs": [],
      "stateMutability": "nonpayable",
      "type": "function"
    },
    {
      "inputs": [
        {
          "internalType": "bytes32",
          "name": "role",
          "type": "bytes32"
        },
        {
          "internalType": "address",
          "name": "account",
          "type": "address"
        }
      ],
      "name": "revokeRole",
      "outputs": [],
      "stateMutability": "nonpayable",
      "type": "function"
    },
    {
      "inputs": [
        {
          "internalType": "address",
          "name": "from",
          "type": "address"
        },
        {
          "internalType": "address",
          "name": "to",
          "type": "address"
        },
        {
          "internalType": "uint256[]",
          "name": "tokenIds",
          "type": "uint256[]"
        }
      ],
      "name": "safeBatchTransferFrom",
      "outputs": [],
      "stateMutability": "nonpayable",
      "type": "function"
    },
    {
      "inputs": [
        {
          "internalType": "address",
          "name": "from",
          "type": "address"
        },
        {
          "internalType": "address",
          "name": "to",
          "type": "address"
        },
        {
          "internalType": "uint256[]",
          "name": "tokenIds",
          "type": "uint256[]"
        },
        {
          "internalType": "bytes",
          "name": "_data",
          "type": "bytes"
        }
      ],
      "name": "safeBatchTransferFrom",
      "outputs": [],
      "stateMutability": "nonpayable",
      "type": "function"
    },
    {
      "inputs": [
        {
          "internalType": "address",
          "name": "from",
          "type": "address"
        },
        {
          "internalType": "address",
          "name": "to",
          "type": "address"
        },
        {
          "internalType": "uint256",
          "name": "tokenId",
          "type": "uint256"
        }
      ],
      "name": "safeTransferFrom",
      "outputs": [],
      "stateMutability": "nonpayable",
      "type": "function"
    },
    {
      "inputs": [
        {
          "internalType": "address",
          "name": "from",
          "type": "address"
        },
        {
          "internalType": "address",
          "name": "to",
          "type": "address"
        },
        {
          "internalType": "uint256",
          "name": "tokenId",
          "type": "uint256"
        },
        {
          "internalType": "bytes",
          "name": "_data",
          "type": "bytes"
        }
      ],
      "name": "safeTransferFrom",
      "outputs": [],
      "stateMutability": "nonpayable",
      "type": "function"
    },
    {
      "inputs": [
        {
          "internalType": "address",
          "name": "operator",
          "type": "address"
        },
        {
          "internalType": "bool",
          "name": "approved",
          "type": "bool"
        }
      ],
      "name": "setApprovalForAll",
      "outputs": [],
      "stateMutability": "nonpayable",
      "type": "function"
    },
    {
      "inputs": [
        {
          "internalType": "bytes4",
          "name": "interfaceId",
          "type": "bytes4"
        }
      ],
      "name": "supportsInterface",
      "outputs": [
        {
          "internalType": "bool",
          "name": "",
          "type": "bool"
        }
      ],
      "stateMutability": "view",
      "type": "function",
      "constant": true
    },
    {
      "inputs": [],
      "name": "symbol",
      "outputs": [
        {
          "internalType": "string",
          "name": "",
          "type": "string"
        }
      ],
      "stateMutability": "view",
      "type": "function",
      "constant": true
    },
    {
      "inputs": [
        {
          "internalType": "uint256",
          "name": "index",
          "type": "uint256"
        }
      ],
      "name": "tokenByIndex",
      "outputs": [
        {
          "internalType": "uint256",
          "name": "",
          "type": "uint256"
        }
      ],
      "stateMutability": "view",
      "type": "function",
      "constant": true
    },
    {
      "inputs": [
        {
          "internalType": "address",
          "name": "owner",
          "type": "address"
        },
        {
          "internalType": "uint256",
          "name": "index",
          "type": "uint256"
        }
      ],
      "name": "tokenOfOwnerByIndex",
      "outputs": [
        {
          "internalType": "uint256",
          "name": "",
          "type": "uint256"
        }
      ],
      "stateMutability": "view",
      "type": "function",
      "constant": true
    },
    {
      "inputs": [
        {
          "internalType": "uint256",
          "name": "tokenId",
          "type": "uint256"
        }
      ],
      "name": "tokenURI",
      "outputs": [
        {
          "internalType": "string",
          "name": "",
          "type": "string"
        }
      ],
      "stateMutability": "view",
      "type": "function",
      "constant": true
    },
    {
      "inputs": [],
      "name": "totalSupply",
      "outputs": [
        {
          "internalType": "uint256",
          "name": "",
          "type": "uint256"
        }
      ],
      "stateMutability": "view",
      "type": "function",
      "constant": true
    },
    {
      "inputs": [
        {
          "internalType": "address",
          "name": "from",
          "type": "address"
        },
        {
          "internalType": "address",
          "name": "to",
          "type": "address"
        },
        {
          "internalType": "uint256",
          "name": "tokenId",
          "type": "uint256"
        }
      ],
      "name": "transferFrom",
      "outputs": [],
      "stateMutability": "nonpayable",
      "type": "function"
    },
    {
      "inputs": [
        {
          "internalType": "address",
          "name": "_owner",
          "type": "address"
        },
        {
          "internalType": "uint256",
          "name": "_position",
          "type": "uint256"
        }
      ],
      "name": "createPixel",
      "outputs": [],
      "stateMutability": "nonpayable",
      "type": "function"
    },
    {
      "inputs": [
        {
          "internalType": "address",
          "name": "_owner",
          "type": "address"
        },
        {
          "internalType": "uint256[]",
          "name": "_positions",
          "type": "uint256[]"
        }
      ],
      "name": "createPixels",
      "outputs": [],
      "stateMutability": "nonpayable",
      "type": "function"
    },
    {
      "inputs": [
        {
          "internalType": "uint256",
          "name": "_position",
          "type": "uint256"
        }
      ],
      "name": "getColor",
      "outputs": [
        {
          "internalType": "bytes6",
          "name": "",
          "type": "bytes6"
        }
      ],
      "stateMutability": "view",
      "type": "function",
      "constant": true
    },
    {
      "inputs": [
        {
          "internalType": "uint256",
          "name": "_position",
          "type": "uint256"
        },
        {
          "internalType": "bytes6",
          "name": "_color",
          "type": "bytes6"
        }
      ],
      "name": "setColor",
      "outputs": [],
      "stateMutability": "nonpayable",
      "type": "function"
    },
    {
      "inputs": [
        {
          "internalType": "uint256[]",
          "name": "_positions",
          "type": "uint256[]"
        },
        {
          "internalType": "bytes6[]",
          "name": "_colors",
          "type": "bytes6[]"
        }
      ],
      "name": "setColors",
      "outputs": [],
      "stateMutability": "nonpayable",
      "type": "function"
    },
    {
      "inputs": [
        {
          "internalType": "uint256",
          "name": "_position",
          "type": "uint256"
        }
      ],
      "name": "exists",
      "outputs": [
        {
          "internalType": "bool",
          "name": "",
          "type": "bool"
        }
      ],
      "stateMutability": "view",
      "type": "function",
      "constant": true
    },
    {
      "inputs": [
        {
          "internalType": "uint48",
          "name": "_maxPixels",
          "type": "uint48"
        }
      ],
      "name": "setMaxPixels",
      "outputs": [],
      "stateMutability": "nonpayable",
      "type": "function"
    },
    {
      "inputs": [
        {
          "internalType": "address",
          "name": "_account",
          "type": "address"
        }
      ],
      "name": "addMinter",
      "outputs": [],
      "stateMutability": "nonpayable",
      "type": "function"
    },
    {
      "inputs": [
        {
          "internalType": "address",
          "name": "_account",
          "type": "address"
        }
      ],
      "name": "removeMinter",
      "outputs": [],
      "stateMutability": "nonpayable",
      "type": "function"
    }
  ],
  "bytecode": "0x60806040523480156200001157600080fd5b50604051620057b3380380620057b3833981810160405260208110156200003757600080fd5b81019080805190602001909291905050506040518060400160405280600a81526020017f506978656c576f726c64000000000000000000000000000000000000000000008152506040518060400160405280600281526020017f5057000000000000000000000000000000000000000000000000000000000000815250620000cc6301ffc9a760e01b6200023360201b60201c565b8160069080519060200190620000e4929190620004d3565b508060079080519060200190620000fd929190620004d3565b50620001166380ac58cd60e01b6200023360201b60201c565b6200012e635b5e139f60e01b6200023360201b60201c565b6200014663780e9d6360e01b6200023360201b60201c565b505060008165ffffffffffff1611620001ab576040517f08c379a00000000000000000000000000000000000000000000000000000000081526004018080602001828103825260298152602001806200578a6029913960400191505060405180910390fd5b80600b60006101000a81548165ffffffffffff021916908365ffffffffffff160217905550620001e56000801b336200033c60201b60201c565b6200022c60405180807f4d494e5445525f524f4c45000000000000000000000000000000000000000000815250600b0190506040518091039020336200033c60201b60201c565b5062000582565b63ffffffff60e01b817bffffffffffffffffffffffffffffffffffffffffffffffffffffffff19161415620002d0576040517f08c379a000000000000000000000000000000000000000000000000000000000815260040180806020018281038252601c8152602001807f4552433136353a20696e76616c696420696e746572666163652069640000000081525060200191505060405180910390fd5b6001600080837bffffffffffffffffffffffffffffffffffffffffffffffffffffffff19167bffffffffffffffffffffffffffffffffffffffffffffffffffffffff1916815260200190815260200160002060006101000a81548160ff02191690831515021790555050565b6200034e82826200035260201b60201c565b5050565b6200038181600a6000858152602001908152602001600020600001620003f660201b62003de71790919060201c565b15620003f257620003976200042e60201b60201c565b73ffffffffffffffffffffffffffffffffffffffff168173ffffffffffffffffffffffffffffffffffffffff16837f2f8788117e7eff1d82e926ec794901d17c78024a50270940304540a733656f0d60405160405180910390a45b5050565b600062000426836000018373ffffffffffffffffffffffffffffffffffffffff1660001b6200043660201b60201c565b905092915050565b600033905090565b60006200044a8383620004b060201b60201c565b620004a5578260000182908060018154018082558091505060019003906000526020600020016000909190919091505582600001805490508360010160008481526020019081526020016000208190555060019050620004aa565b600090505b92915050565b600080836001016000848152602001908152602001600020541415905092915050565b828054600181600116156101000203166002900490600052602060002090601f016020900481019282601f106200051657805160ff191683800117855562000547565b8280016001018555821562000547579182015b828111156200054657825182559160200191906001019062000529565b5b5090506200055691906200055a565b5090565b6200057f91905b808211156200057b57600081600090555060010162000561565b5090565b90565b6151f880620005926000396000f3fe608060405234801561001057600080fd5b506004361061023d5760003560e01c80636c0360eb1161013b578063b88d4fde116100b8578063cae661601161007c578063cae661601461125d578063d5391393146112b2578063d547741f146112d0578063e985e9c51461131e578063f3e4160c1461139a5761023d565b8063b88d4fde14610f1b578063bd11f69d14611020578063be9f8a841461109c578063c87b56dd14611174578063ca15c8731461121b5761023d565b806395d89b41116100ff57806395d89b4114610d98578063983b2d5614610e1b578063a217fddf14610e5f578063a22cb46514610e7d578063ae979b8a14610ecd5761023d565b80636c0360eb14610b6357806370a0823114610be657806380057b9a14610c3e5780639010d07c14610cba57806391d1485414610d325761023d565b806328cfbd46116101c957806342842e0e1161018d57806342842e0e146109c95780634f558e7914610a375780634f6ccce714610a7d5780635fb466fa14610abf5780636352211e14610af55761023d565b806328cfbd46146106f85780632f2ff15d146108875780632f745c59146108d55780633092afd51461093757806336568abe1461097b5761023d565b8063095ea7b311610210578063095ea7b31461049057806318160ddd146104de5780631b93dfb4146104fc57806323b872dd14610648578063248a9ca3146106b65761023d565b806301ffc9a714610242578063034601ec146102a757806306fdde031461039f578063081812fc14610422575b600080fd5b61028d6004803603602081101561025857600080fd5b8101908080357bffffffffffffffffffffffffffffffffffffffffffffffffffffffff191690602001909291905050506113c8565b604051808215151515815260200191505060405180910390f35b61039d600480360360608110156102bd57600080fd5b81019080803573ffffffffffffffffffffffffffffffffffffffff169060200190929190803573ffffffffffffffffffffffffffffffffffffffff1690602001909291908035906020019064010000000081111561031a57600080fd5b82018360208201111561032c57600080fd5b8035906020019184602083028401116401000000008311171561034e57600080fd5b919080806020026020016040519081016040528093929190818152602001838360200280828437600081840152601f19601f82011690508083019250505050505050919291929050505061142f565b005b6103a761144f565b6040518080602001828103825283818151815260200191508051906020019080838360005b838110156103e75780820151818401526020810190506103cc565b50505050905090810190601f1680156104145780820380516001836020036101000a031916815260200191505b509250505060405180910390f35b61044e6004803603602081101561043857600080fd5b81019080803590602001909291905050506114f1565b604051808273ffffffffffffffffffffffffffffffffffffffff1673ffffffffffffffffffffffffffffffffffffffff16815260200191505060405180910390f35b6104dc600480360360408110156104a657600080fd5b81019080803573ffffffffffffffffffffffffffffffffffffffff1690602001909291908035906020019092919050505061158c565b005b6104e66116d0565b6040518082815260200191505060405180910390f35b6106466004803603604081101561051257600080fd5b810190808035906020019064010000000081111561052f57600080fd5b82018360208201111561054157600080fd5b8035906020019184602083028401116401000000008311171561056357600080fd5b919080806020026020016040519081016040528093929190818152602001838360200280828437600081840152601f19601f820116905080830192505050505050509192919290803590602001906401000000008111156105c357600080fd5b8201836020820111156105d557600080fd5b803590602001918460208302840111640100000000831117156105f757600080fd5b919080806020026020016040519081016040528093929190818152602001838360200280828437600081840152601f19601f8201169050808301925050505050505091929192905050506116e1565b005b6106b46004803603606081101561065e57600080fd5b81019080803573ffffffffffffffffffffffffffffffffffffffff169060200190929190803573ffffffffffffffffffffffffffffffffffffffff1690602001909291908035906020019092919050505061196a565b005b6106e2600480360360208110156106cc57600080fd5b81019080803590602001909291905050506119e0565b6040518082815260200191505060405180910390f35b6108856004803603608081101561070e57600080fd5b81019080803573ffffffffffffffffffffffffffffffffffffffff169060200190929190803573ffffffffffffffffffffffffffffffffffffffff1690602001909291908035906020019064010000000081111561076b57600080fd5b82018360208201111561077d57600080fd5b8035906020019184602083028401116401000000008311171561079f57600080fd5b919080806020026020016040519081016040528093929190818152602001838360200280828437600081840152601f19601f820116905080830192505050505050509192919290803590602001906401000000008111156107ff57600080fd5b82018360208201111561081157600080fd5b8035906020019184600183028401116401000000008311171561083357600080fd5b91908080601f016020809104026020016040519081016040528093929190818152602001838380828437600081840152601f19601f820116905080830192505050505050509192919290505050611a00565b005b6108d36004803603604081101561089d57600080fd5b8101908080359060200190929190803573ffffffffffffffffffffffffffffffffffffffff169060200190929190505050611ab5565b005b610921600480360360408110156108eb57600080fd5b81019080803573ffffffffffffffffffffffffffffffffffffffff16906020019092919080359060200190929190505050611b3f565b6040518082815260200191505060405180910390f35b6109796004803603602081101561094d57600080fd5b81019080803573ffffffffffffffffffffffffffffffffffffffff169060200190929190505050611b9a565b005b6109c76004803603604081101561099157600080fd5b8101908080359060200190929190803573ffffffffffffffffffffffffffffffffffffffff169060200190929190505050611c5b565b005b610a35600480360360608110156109df57600080fd5b81019080803573ffffffffffffffffffffffffffffffffffffffff169060200190929190803573ffffffffffffffffffffffffffffffffffffffff16906020019092919080359060200190929190505050611cf4565b005b610a6360048036036020811015610a4d57600080fd5b8101908080359060200190929190505050611d14565b604051808215151515815260200191505060405180910390f35b610aa960048036036020811015610a9357600080fd5b8101908080359060200190929190505050611d26565b6040518082815260200191505060405180910390f35b610af360048036036020811015610ad557600080fd5b81019080803565ffffffffffff169060200190929190505050611d49565b005b610b2160048036036020811015610b0b57600080fd5b8101908080359060200190929190505050611e6b565b604051808273ffffffffffffffffffffffffffffffffffffffff1673ffffffffffffffffffffffffffffffffffffffff16815260200191505060405180910390f35b610b6b611ea2565b6040518080602001828103825283818151815260200191508051906020019080838360005b83811015610bab578082015181840152602081019050610b90565b50505050905090810190601f168015610bd85780820380516001836020036101000a031916815260200191505b509250505060405180910390f35b610c2860048036036020811015610bfc57600080fd5b81019080803573ffffffffffffffffffffffffffffffffffffffff169060200190929190505050611f44565b6040518082815260200191505060405180910390f35b610c6a60048036036020811015610c5457600080fd5b8101908080359060200190929190505050612019565b604051808279ffffffffffffffffffffffffffffffffffffffffffffffffffff191679ffffffffffffffffffffffffffffffffffffffffffffffffffff1916815260200191505060405180910390f35b610cf060048036036040811015610cd057600080fd5b8101908080359060200190929190803590602001909291905050506120a1565b604051808273ffffffffffffffffffffffffffffffffffffffff1673ffffffffffffffffffffffffffffffffffffffff16815260200191505060405180910390f35b610d7e60048036036040811015610d4857600080fd5b8101908080359060200190929190803573ffffffffffffffffffffffffffffffffffffffff1690602001909291905050506120d3565b604051808215151515815260200191505060405180910390f35b610da0612105565b6040518080602001828103825283818151815260200191508051906020019080838360005b83811015610de0578082015181840152602081019050610dc5565b50505050905090810190601f168015610e0d5780820380516001836020036101000a031916815260200191505b509250505060405180910390f35b610e5d60048036036020811015610e3157600080fd5b81019080803573ffffffffffffffffffffffffffffffffffffffff1690602001909291905050506121a7565b005b610e67612268565b6040518082815260200191505060405180910390f35b610ecb60048036036040811015610e9357600080fd5b81019080803573ffffffffffffffffffffffffffffffffffffffff16906020019092919080351515906020019092919050505061226f565b005b610f1960048036036040811015610ee357600080fd5b81019080803573ffffffffffffffffffffffffffffffffffffffff16906020019092919080359060200190929190505050612427565b005b61101e60048036036080811015610f3157600080fd5b81019080803573ffffffffffffffffffffffffffffffffffffffff169060200190929190803573ffffffffffffffffffffffffffffffffffffffff1690602001909291908035906020019092919080359060200190640100000000811115610f9857600080fd5b820183602082011115610faa57600080fd5b80359060200191846001830284011164010000000083111715610fcc57600080fd5b91908080601f016020809104026020016040519081016040528093929190818152602001838380828437600081840152601f19601f8201169050808301925050505050505091929192905050506125be565b005b61104c6004803603602081101561103657600080fd5b8101908080359060200190929190505050612636565b604051808279ffffffffffffffffffffffffffffffffffffffffffffffffffff191679ffffffffffffffffffffffffffffffffffffffffffffffffffff1916815260200191505060405180910390f35b611172600480360360408110156110b257600080fd5b81019080803573ffffffffffffffffffffffffffffffffffffffff169060200190929190803590602001906401000000008111156110ef57600080fd5b82018360208201111561110157600080fd5b8035906020019184602083028401116401000000008311171561112357600080fd5b919080806020026020016040519081016040528093929190818152602001838360200280828437600081840152601f19601f820116905080830192505050505050509192919290505050612656565b005b6111a06004803603602081101561118a57600080fd5b81019080803590602001909291905050506127a4565b6040518080602001828103825283818151815260200191508051906020019080838360005b838110156111e05780820151818401526020810190506111c5565b50505050905090810190601f16801561120d5780820380516001836020036101000a031916815260200191505b509250505060405180910390f35b6112476004803603602081101561123157600080fd5b8101908080359060200190929190505050612a8d565b6040518082815260200191505060405180910390f35b6112b06004803603604081101561127357600080fd5b8101908080359060200190929190803579ffffffffffffffffffffffffffffffffffffffffffffffffffff19169060200190929190505050612ab4565b005b6112ba612c4c565b6040518082815260200191505060405180910390f35b61131c600480360360408110156112e657600080fd5b8101908080359060200190929190803573ffffffffffffffffffffffffffffffffffffffff169060200190929190505050612c85565b005b6113806004803603604081101561133457600080fd5b81019080803573ffffffffffffffffffffffffffffffffffffffff169060200190929190803573ffffffffffffffffffffffffffffffffffffffff169060200190929190505050612d0f565b604051808215151515815260200191505060405180910390f35b6113a2612da3565b604051808265ffffffffffff1665ffffffffffff16815260200191505060405180910390f35b6000806000837bffffffffffffffffffffffffffffffffffffffffffffffffffffffff19167bffffffffffffffffffffffffffffffffffffffffffffffffffffffff1916815260200190815260200160002060009054906101000a900460ff169050919050565b61144a83838360405180602001604052806000815250611a00565b505050565b606060068054600181600116156101000203166002900480601f0160208091040260200160405190810160405280929190818152602001828054600181600116156101000203166002900480156114e75780601f106114bc576101008083540402835291602001916114e7565b820191906000526020600020905b8154815290600101906020018083116114ca57829003601f168201915b5050505050905090565b60006114fc82612dbb565b611551576040517f08c379a00000000000000000000000000000000000000000000000000000000081526004018080602001828103825260318152602001806150406031913960400191505060405180910390fd5b6004600083815260200190815260200160002060009054906101000a900473ffffffffffffffffffffffffffffffffffffffff169050919050565b600061159782611e6b565b90508073ffffffffffffffffffffffffffffffffffffffff168373ffffffffffffffffffffffffffffffffffffffff16141561161e576040517f08c379a0000000000000000000000000000000000000000000000000000000008152600401808060200182810382526026815260200180614ff36026913960400191505060405180910390fd5b8073ffffffffffffffffffffffffffffffffffffffff1661163d612dd8565b73ffffffffffffffffffffffffffffffffffffffff16148061166c575061166b81611666612dd8565b612d0f565b5b6116c1576040517f08c379a000000000000000000000000000000000000000000000000000000000815260040180806020018281038252603d815260200180614e2a603d913960400191505060405180910390fd5b6116cb8383612de0565b505050565b60006116dc6002612e99565b905090565b805182511461173b576040517f08c379a000000000000000000000000000000000000000000000000000000000815260040180806020018281038252602e81526020018061509a602e913960400191505060405180910390fd5b60008090505b82518110156118a457600083828151811061175857fe5b60200260200101519050600083838151811061177057fe5b6020026020010151905061178382611e6b565b73ffffffffffffffffffffffffffffffffffffffff163373ffffffffffffffffffffffffffffffffffffffff1614611806576040517f08c379a00000000000000000000000000000000000000000000000000000000081526004018080602001828103825260278152602001806150196027913960400191505060405180910390fd5b61180f81612eae565b611864576040517f08c379a0000000000000000000000000000000000000000000000000000000008152600401808060200182810382526027815260200180614f9b6027913960400191505060405180910390fd5b80600c600084815260200190815260200160002060006101000a81548165ffffffffffff021916908360d01c021790555050508080600101915050611741565b507ffa8ec990a4ec1e277e4b9b82fac2639d6962df1860e6205baa8ea54aa1e3c4758282604051808060200180602001838103835285818151815260200191508051906020019060200280838360005b8381101561190f5780820151818401526020810190506118f4565b50505050905001838103825284818151815260200191508051906020019060200280838360005b83811015611951578082015181840152602081019050611936565b5050505090500194505050505060405180910390a15050565b61197b611975612dd8565b82613028565b6119d0576040517f08c379a00000000000000000000000000000000000000000000000000000000081526004018080602001828103825260368152602001806151276036913960400191505060405180910390fd5b6119db83838361311c565b505050565b6000600a6000838152602001908152602001600020600201549050919050565b611a08612dd8565b73ffffffffffffffffffffffffffffffffffffffff168473ffffffffffffffffffffffffffffffffffffffff161480611a4e5750611a4d84611a48612dd8565b612d0f565b5b611aa3576040517f08c379a00000000000000000000000000000000000000000000000000000000081526004018080602001828103825260368152602001806151276036913960400191505060405180910390fd5b611aaf8484848461335f565b50505050565b611adc600a600084815260200190815260200160002060020154611ad7612dd8565b6120d3565b611b31576040517f08c379a000000000000000000000000000000000000000000000000000000000815260040180806020018281038252602f815260200180614c57602f913960400191505060405180910390fd5b611b3b82826133d1565b5050565b6000611b9282600160008673ffffffffffffffffffffffffffffffffffffffff1673ffffffffffffffffffffffffffffffffffffffff16815260200190815260200160002061346590919063ffffffff16565b905092915050565b611ba76000801b336120d3565b611c19576040517f08c379a000000000000000000000000000000000000000000000000000000000815260040180806020018281038252601d8152602001807f506978656c733a205265737472696374656420746f2061646d696e732e00000081525060200191505060405180910390fd5b611c5860405180807f4d494e5445525f524f4c45000000000000000000000000000000000000000000815250600b019050604051809103902082612c85565b50565b611c63612dd8565b73ffffffffffffffffffffffffffffffffffffffff168173ffffffffffffffffffffffffffffffffffffffff1614611ce6576040517f08c379a000000000000000000000000000000000000000000000000000000000815260040180806020018281038252602f815260200180615194602f913960400191505060405180910390fd5b611cf0828261347f565b5050565b611d0f838383604051806020016040528060008152506125be565b505050565b6000611d1f82612dbb565b9050919050565b600080611d3d83600261351390919063ffffffff16565b50905080915050919050565b611d566000801b336120d3565b611dc8576040517f08c379a000000000000000000000000000000000000000000000000000000000815260040180806020018281038252601d8152602001807f506978656c733a205265737472696374656420746f2061646d696e732e00000081525060200191505060405180910390fd5b60008165ffffffffffff16118015611dee5750611de36116d0565b8165ffffffffffff16115b611e43576040517f08c379a0000000000000000000000000000000000000000000000000000000008152600401808060200182810382526042815260200180614cec6042913960600191505060405180910390fd5b80600b60006101000a81548165ffffffffffff021916908365ffffffffffff16021790555050565b6000611e9b826040518060600160405280602e8152602001614f17602e913960026135429092919063ffffffff16565b9050919050565b606060098054600181600116156101000203166002900480601f016020809104026020016040519081016040528092919081815260200182805460018160011615610100020316600290048015611f3a5780601f10611f0f57610100808354040283529160200191611f3a565b820191906000526020600020905b815481529060010190602001808311611f1d57829003601f168201915b5050505050905090565b60008073ffffffffffffffffffffffffffffffffffffffff168273ffffffffffffffffffffffffffffffffffffffff161415611fcb576040517f08c379a000000000000000000000000000000000000000000000000000000000815260040180806020018281038252602f815260200180614d2e602f913960400191505060405180910390fd5b612012600160008473ffffffffffffffffffffffffffffffffffffffff1673ffffffffffffffffffffffffffffffffffffffff168152602001908152602001600020613561565b9050919050565b600061202482611d14565b612079576040517f08c379a0000000000000000000000000000000000000000000000000000000008152600401808060200182810382526038815260200180614cb46038913960400191505060405180910390fd5b600c600083815260200190815260200160002060009054906101000a900460d01b9050919050565b60006120cb82600a600086815260200190815260200160002060000161357690919063ffffffff16565b905092915050565b60006120fd82600a600086815260200190815260200160002060000161359090919063ffffffff16565b905092915050565b606060078054600181600116156101000203166002900480601f01602080910402602001604051908101604052809291908181526020018280546001816001161561010002031660029004801561219d5780601f106121725761010080835404028352916020019161219d565b820191906000526020600020905b81548152906001019060200180831161218057829003601f168201915b5050505050905090565b6121b46000801b336120d3565b612226576040517f08c379a000000000000000000000000000000000000000000000000000000000815260040180806020018281038252601d8152602001807f506978656c733a205265737472696374656420746f2061646d696e732e00000081525060200191505060405180910390fd5b61226560405180807f4d494e5445525f524f4c45000000000000000000000000000000000000000000815250600b019050604051809103902082611ab5565b50565b6000801b81565b612277612dd8565b73ffffffffffffffffffffffffffffffffffffffff168273ffffffffffffffffffffffffffffffffffffffff161415612318576040517f08c379a000000000000000000000000000000000000000000000000000000000815260040180806020018281038252601e8152602001807f45524337323142617463683a20617070726f766520746f2063616c6c6572000081525060200191505060405180910390fd5b8060056000612325612dd8565b73ffffffffffffffffffffffffffffffffffffffff1673ffffffffffffffffffffffffffffffffffffffff16815260200190815260200160002060008473ffffffffffffffffffffffffffffffffffffffff1673ffffffffffffffffffffffffffffffffffffffff16815260200190815260200160002060006101000a81548160ff0219169083151502179055508173ffffffffffffffffffffffffffffffffffffffff166123d2612dd8565b73ffffffffffffffffffffffffffffffffffffffff167f17307eab39ab6107e8899845ad3d59bd9653f200f220920489ca2b5937696c3183604051808215151515815260200191505060405180910390a35050565b61246660405180807f4d494e5445525f524f4c45000000000000000000000000000000000000000000815250600b0190506040518091039020336120d3565b6124d8576040517f08c379a000000000000000000000000000000000000000000000000000000000815260040180806020018281038252601e8152602001807f506978656c733a205265737472696374656420746f206d696e746572732e000081525060200191505060405180910390fd5b60008111612531576040517f08c379a0000000000000000000000000000000000000000000000000000000008152600401808060200182810382526021815260200180614dd96021913960400191505060405180910390fd5b600b60009054906101000a900465ffffffffffff1665ffffffffffff1660016125586116d0565b0111156125b0576040517f08c379a00000000000000000000000000000000000000000000000000000000081526004018080602001828103825260348152602001806150f36034913960400191505060405180910390fd5b6125ba82826135c0565b5050565b6125cf6125c9612dd8565b83613028565b612624576040517f08c379a00000000000000000000000000000000000000000000000000000000081526004018080602001828103825260368152602001806151276036913960400191505060405180910390fd5b612630848484846135de565b50505050565b600c6020528060005260406000206000915054906101000a900460d01b81565b61269560405180807f4d494e5445525f524f4c45000000000000000000000000000000000000000000815250600b0190506040518091039020336120d3565b612707576040517f08c379a000000000000000000000000000000000000000000000000000000000815260040180806020018281038252601e8152602001807f506978656c733a205265737472696374656420746f206d696e746572732e000081525060200191505060405180910390fd5b600b60009054906101000a900465ffffffffffff1665ffffffffffff16815161272e6116d0565b011115612786576040517f08c379a00000000000000000000000000000000000000000000000000000000081526004018080602001828103825260348152602001806150f36034913960400191505060405180910390fd5b6127a0828260405180602001604052806000815250613650565b5050565b60606127af82612dbb565b612804576040517f08c379a000000000000000000000000000000000000000000000000000000000815260040180806020018281038252602f815260200180614f45602f913960400191505060405180910390fd5b6060600860008481526020019081526020016000208054600181600116156101000203166002900480601f0160208091040260200160405190810160405280929190818152602001828054600181600116156101000203166002900480156128ad5780601f10612882576101008083540402835291602001916128ad565b820191906000526020600020905b81548152906001019060200180831161289057829003601f168201915b505050505090506000600980546001816001161561010002031660029004905014156128dc5780915050612a88565b6000815111156129b55760098160405160200180838054600181600116156101000203166002900480156129475780601f10612925576101008083540402835291820191612947565b820191906000526020600020905b815481529060010190602001808311612933575b505082805190602001908083835b602083106129785780518252602082019150602081019050602083039250612955565b6001836020036101000a03801982511681845116808217855250505050505090500192505050604051602081830303815290604052915050612a88565b60096129c0846136c1565b6040516020018083805460018160011615610100020316600290048015612a1e5780601f106129fc576101008083540402835291820191612a1e565b820191906000526020600020905b815481529060010190602001808311612a0a575b505082805190602001908083835b60208310612a4f5780518252602082019150602081019050602083039250612a2c565b6001836020036101000a038019825116818451168082178552505050505050905001925050506040516020818303038152906040529150505b919050565b6000612aad600a60008481526020019081526020016000206000016137f1565b9050919050565b612abd82611e6b565b73ffffffffffffffffffffffffffffffffffffffff163373ffffffffffffffffffffffffffffffffffffffff1614612b40576040517f08c379a00000000000000000000000000000000000000000000000000000000081526004018080602001828103825260278152602001806150196027913960400191505060405180910390fd5b612b4981612eae565b612b9e576040517f08c379a0000000000000000000000000000000000000000000000000000000008152600401808060200182810382526027815260200180614f9b6027913960400191505060405180910390fd5b80600c600084815260200190815260200160002060006101000a81548165ffffffffffff021916908360d01c02179055507f85e8ea5806be12cde9b86f71c0594a3f2e795a2a002f4ef07d5a58a47412c12b8282604051808381526020018279ffffffffffffffffffffffffffffffffffffffffffffffffffff191679ffffffffffffffffffffffffffffffffffffffffffffffffffff191681526020019250505060405180910390a15050565b60405180807f4d494e5445525f524f4c45000000000000000000000000000000000000000000815250600b019050604051809103902081565b612cac600a600084815260200190815260200160002060020154612ca7612dd8565b6120d3565b612d01576040517f08c379a0000000000000000000000000000000000000000000000000000000008152600401808060200182810382526030815260200180614dfa6030913960400191505060405180910390fd5b612d0b828261347f565b5050565b6000600560008473ffffffffffffffffffffffffffffffffffffffff1673ffffffffffffffffffffffffffffffffffffffff16815260200190815260200160002060008373ffffffffffffffffffffffffffffffffffffffff1673ffffffffffffffffffffffffffffffffffffffff16815260200190815260200160002060009054906101000a900460ff16905092915050565b600b60009054906101000a900465ffffffffffff1681565b6000612dd182600261380690919063ffffffff16565b9050919050565b600033905090565b816004600083815260200190815260200160002060006101000a81548173ffffffffffffffffffffffffffffffffffffffff021916908373ffffffffffffffffffffffffffffffffffffffff160217905550808273ffffffffffffffffffffffffffffffffffffffff16612e5383611e6b565b73ffffffffffffffffffffffffffffffffffffffff167f8c5be1e5ebec7d5bd14f71427d1e84f3dd0314c0f7b2291e5b200ac8c7c3b92560405160405180910390a45050565b6000612ea782600001613820565b9050919050565b6000805b600660ff168160ff16101561301d576000838260ff1660068110612ed257fe5b1a60f81b9050603060f81b817effffffffffffffffffffffffffffffffffffffffffffffffffffffffffffff191610158015612f345750603960f81b817effffffffffffffffffffffffffffffffffffffffffffffffffffffffffffff191611155b158015612f9a5750604160f81b817effffffffffffffffffffffffffffffffffffffffffffffffffffffffffffff191610158015612f985750605a60f81b817effffffffffffffffffffffffffffffffffffffffffffffffffffffffffffff191611155b155b8015612fff5750606160f81b817effffffffffffffffffffffffffffffffffffffffffffffffffffffffffffff191610158015612ffd5750607a60f81b817effffffffffffffffffffffffffffffffffffffffffffffffffffffffffffff191611155b155b1561300f57600092505050613023565b508080600101915050612eb2565b50600190505b919050565b600061303382612dbb565b613088576040517f08c379a0000000000000000000000000000000000000000000000000000000008152600401808060200182810382526031815260200180614fc26031913960400191505060405180910390fd5b600061309383611e6b565b90508073ffffffffffffffffffffffffffffffffffffffff168473ffffffffffffffffffffffffffffffffffffffff16148061310257508373ffffffffffffffffffffffffffffffffffffffff166130ea846114f1565b73ffffffffffffffffffffffffffffffffffffffff16145b8061311357506131128185612d0f565b5b91505092915050565b8273ffffffffffffffffffffffffffffffffffffffff1661313c82611e6b565b73ffffffffffffffffffffffffffffffffffffffff16146131a8576040517f08c379a000000000000000000000000000000000000000000000000000000000815260040180806020018281038252602e815260200180614c86602e913960400191505060405180910390fd5b600073ffffffffffffffffffffffffffffffffffffffff168273ffffffffffffffffffffffffffffffffffffffff16141561322e576040517f08c379a00000000000000000000000000000000000000000000000000000000081526004018080602001828103825260298152602001806150716029913960400191505060405180910390fd5b613239838383613831565b613244600082612de0565b61329581600160008673ffffffffffffffffffffffffffffffffffffffff1673ffffffffffffffffffffffffffffffffffffffff16815260200190815260200160002061383690919063ffffffff16565b506132e781600160008573ffffffffffffffffffffffffffffffffffffffff1673ffffffffffffffffffffffffffffffffffffffff16815260200190815260200160002061385090919063ffffffff16565b506132fe8183600261386a9092919063ffffffff16565b50808273ffffffffffffffffffffffffffffffffffffffff168473ffffffffffffffffffffffffffffffffffffffff167fddf252ad1be2c89b69c2b068fc378daa952ba7f163c4a11628f55a4df523b3ef60405160405180910390a4505050565b61336a84848461389f565b61337684848484613b61565b6133cb576040517f08c379a000000000000000000000000000000000000000000000000000000000815260040180806020018281038252603c815260200180614edb603c913960400191505060405180910390fd5b50505050565b6133f981600a6000858152602001908152602001600020600001613de790919063ffffffff16565b1561346157613406612dd8565b73ffffffffffffffffffffffffffffffffffffffff168173ffffffffffffffffffffffffffffffffffffffff16837f2f8788117e7eff1d82e926ec794901d17c78024a50270940304540a733656f0d60405160405180910390a45b5050565b60006134748360000183613e17565b60001c905092915050565b6134a781600a6000858152602001908152602001600020600001613e9a90919063ffffffff16565b1561350f576134b4612dd8565b73ffffffffffffffffffffffffffffffffffffffff168173ffffffffffffffffffffffffffffffffffffffff16837ff6391f5c32d9c69d2a47ea670b442974b53935d1edc7fd64eb21e047a839171b60405160405180910390a45b5050565b6000806000806135268660000186613eca565b915091508160001c8160001c8090509350935050509250929050565b6000613555846000018460001b84613f63565b60001c90509392505050565b600061356f82600001614059565b9050919050565b60006135858360000183613e17565b60001c905092915050565b60006135b8836000018373ffffffffffffffffffffffffffffffffffffffff1660001b61406a565b905092915050565b6135da82826040518060200160405280600081525061408d565b5050565b6135e984848461311c565b6135f5848484846140fe565b61364a576040517f08c379a000000000000000000000000000000000000000000000000000000000815260040180806020018281038252603781526020018061515d6037913960400191505060405180910390fd5b50505050565b61365a8383614343565b6136676000848484613b61565b6136bc576040517f08c379a000000000000000000000000000000000000000000000000000000000815260040180806020018281038252603781526020018061515d6037913960400191505060405180910390fd5b505050565b60606000821415613709576040518060400160405280600181526020017f300000000000000000000000000000000000000000000000000000000000000081525090506137ec565b600082905060005b60008214613733578080600101915050600a828161372b57fe5b049150613711565b6060816040519080825280601f01601f1916602001820160405280156137685781602001600182028038833980820191505090505b50905060006001830390508593505b600084146137e457600a848161378957fe5b0660300160f81b828280600190039350815181106137a357fe5b60200101907effffffffffffffffffffffffffffffffffffffffffffffffffffffffffffff1916908160001a905350600a84816137dc57fe5b049350613777565b819450505050505b919050565b60006137ff82600001614059565b9050919050565b6000613818836000018360001b61457e565b905092915050565b600081600001805490509050919050565b505050565b6000613848836000018360001b6145a1565b905092915050565b6000613862836000018360001b614689565b905092915050565b6000613896846000018460001b8473ffffffffffffffffffffffffffffffffffffffff1660001b6146f9565b90509392505050565b600073ffffffffffffffffffffffffffffffffffffffff168273ffffffffffffffffffffffffffffffffffffffff161415613925576040517f08c379a000000000000000000000000000000000000000000000000000000000815260040180806020018281038252602b8152602001806150c8602b913960400191505060405180910390fd5b6139308383836147d5565b60008090505b8151811015613ab557600082828151811061394d57fe5b602002602001015190508473ffffffffffffffffffffffffffffffffffffffff1661397782611e6b565b73ffffffffffffffffffffffffffffffffffffffff16146139e3576040517f08c379a0000000000000000000000000000000000000000000000000000000008152600401808060200182810382526034815260200180614d7f6034913960400191505060405180910390fd5b6139ee600082612de0565b613a3f81600160008873ffffffffffffffffffffffffffffffffffffffff1673ffffffffffffffffffffffffffffffffffffffff16815260200190815260200160002061383690919063ffffffff16565b50613a9181600160008773ffffffffffffffffffffffffffffffffffffffff1673ffffffffffffffffffffffffffffffffffffffff16815260200190815260200160002061385090919063ffffffff16565b50613aa88185600261386a9092919063ffffffff16565b5050806001019050613936565b508173ffffffffffffffffffffffffffffffffffffffff168373ffffffffffffffffffffffffffffffffffffffff167f47d7d96ed98eae6d3496e1174308c0072ff004cdbee7b0a623ebfd8a8adae284836040518080602001828103825283818151815260200191508051906020019060200280838360005b83811015613b49578082015181840152602081019050613b2e565b505050509050019250505060405180910390a3505050565b6000613b828473ffffffffffffffffffffffffffffffffffffffff166147da565b613b8f5760019050613ddf565b6060613d6663150b7a0260e01b613ba4612dd8565b888787604051602401808573ffffffffffffffffffffffffffffffffffffffff1673ffffffffffffffffffffffffffffffffffffffff1681526020018473ffffffffffffffffffffffffffffffffffffffff1673ffffffffffffffffffffffffffffffffffffffff1681526020018060200180602001838103835285818151815260200191508051906020019060200280838360005b83811015613c55578082015181840152602081019050613c3a565b50505050905001838103825284818151815260200191508051906020019080838360005b83811015613c94578082015181840152602081019050613c79565b50505050905090810190601f168015613cc15780820380516001836020036101000a031916815260200191505b509650505050505050604051602081830303815290604052907bffffffffffffffffffffffffffffffffffffffffffffffffffffffff19166020820180517bffffffffffffffffffffffffffffffffffffffffffffffffffffffff838183161783525050505060405180606001604052806037815260200161515d603791398773ffffffffffffffffffffffffffffffffffffffff166147ed9092919063ffffffff16565b90506000818060200190516020811015613d7f57600080fd5b8101908080519060200190929190505050905063150b7a0260e01b7bffffffffffffffffffffffffffffffffffffffffffffffffffffffff1916817bffffffffffffffffffffffffffffffffffffffffffffffffffffffff191614925050505b949350505050565b6000613e0f836000018373ffffffffffffffffffffffffffffffffffffffff1660001b614689565b905092915050565b600081836000018054905011613e78576040517f08c379a0000000000000000000000000000000000000000000000000000000008152600401808060200182810382526022815260200180614c356022913960400191505060405180910390fd5b826000018281548110613e8757fe5b9060005260206000200154905092915050565b6000613ec2836000018373ffffffffffffffffffffffffffffffffffffffff1660001b6145a1565b905092915050565b60008082846000018054905011613f2c576040517f08c379a0000000000000000000000000000000000000000000000000000000008152600401808060200182810382526022815260200180614e936022913960400191505060405180910390fd5b6000846000018481548110613f3d57fe5b906000526020600020906002020190508060000154816001015492509250509250929050565b6000808460010160008581526020019081526020016000205490506000811415839061402a576040517f08c379a00000000000000000000000000000000000000000000000000000000081526004018080602001828103825283818151815260200191508051906020019080838360005b83811015613fef578082015181840152602081019050613fd4565b50505050905090810190601f16801561401c5780820380516001836020036101000a031916815260200191505b509250505060405180910390fd5b5084600001600182038154811061403d57fe5b9060005260206000209060020201600101549150509392505050565b600081600001805490509050919050565b600080836001016000848152602001908152602001600020541415905092915050565b6140978383614805565b6140a460008484846140fe565b6140f9576040517f08c379a000000000000000000000000000000000000000000000000000000000815260040180806020018281038252603781526020018061515d6037913960400191505060405180910390fd5b505050565b600061411f8473ffffffffffffffffffffffffffffffffffffffff166147da565b61412c576001905061433b565b60606142c263150b7a0260e01b614141612dd8565b888787604051602401808573ffffffffffffffffffffffffffffffffffffffff1673ffffffffffffffffffffffffffffffffffffffff1681526020018473ffffffffffffffffffffffffffffffffffffffff1673ffffffffffffffffffffffffffffffffffffffff16815260200183815260200180602001828103825283818151815260200191508051906020019080838360005b838110156141f15780820151818401526020810190506141d6565b50505050905090810190601f16801561421e5780820380516001836020036101000a031916815260200191505b5095505050505050604051602081830303815290604052907bffffffffffffffffffffffffffffffffffffffffffffffffffffffff19166020820180517bffffffffffffffffffffffffffffffffffffffffffffffffffffffff838183161783525050505060405180606001604052806037815260200161515d603791398773ffffffffffffffffffffffffffffffffffffffff166147ed9092919063ffffffff16565b905060008180602001905160208110156142db57600080fd5b8101908080519060200190929190505050905063150b7a0260e01b7bffffffffffffffffffffffffffffffffffffffffffffffffffffffff1916817bffffffffffffffffffffffffffffffffffffffffffffffffffffffff191614925050505b949350505050565b600073ffffffffffffffffffffffffffffffffffffffff168273ffffffffffffffffffffffffffffffffffffffff1614156143c9576040517f08c379a0000000000000000000000000000000000000000000000000000000008152600401808060200182810382526022815260200180614d5d6022913960400191505060405180910390fd5b6143d5600083836147d5565b60008090505b81518110156144d25760008282815181106143f257fe5b6020026020010151905061440581612dbb565b1561445b576040517f08c379a000000000000000000000000000000000000000000000000000000000815260040180806020018281038252602c815260200180614e67602c913960400191505060405180910390fd5b6144ac81600160008773ffffffffffffffffffffffffffffffffffffffff1673ffffffffffffffffffffffffffffffffffffffff16815260200190815260200160002061385090919063ffffffff16565b506144c38185600261386a9092919063ffffffff16565b505080806001019150506143db565b508173ffffffffffffffffffffffffffffffffffffffff16600073ffffffffffffffffffffffffffffffffffffffff167f47d7d96ed98eae6d3496e1174308c0072ff004cdbee7b0a623ebfd8a8adae284836040518080602001828103825283818151815260200191508051906020019060200280838360005b8381101561456757808201518184015260208101905061454c565b505050509050019250505060405180910390a35050565b600080836001016000848152602001908152602001600020541415905092915050565b6000808360010160008481526020019081526020016000205490506000811461467d57600060018203905060006001866000018054905003905060008660000182815481106145ec57fe5b906000526020600020015490508087600001848154811061460957fe5b906000526020600020018190555060018301876001016000838152602001908152602001600020819055508660000180548061464157fe5b60019003818190600052602060002001600090559055866001016000878152602001908152602001600020600090556001945050505050614683565b60009150505b92915050565b6000614695838361406a565b6146ee5782600001829080600181540180825580915050600190039060005260206000200160009091909190915055826000018054905083600101600084815260200190815260200160002081905550600190506146f3565b600090505b92915050565b60008084600101600085815260200190815260200160002054905060008114156147a0578460000160405180604001604052808681526020018581525090806001815401808255809150506001900390600052602060002090600202016000909190919091506000820151816000015560208201518160010155505084600001805490508560010160008681526020019081526020016000208190555060019150506147ce565b828560000160018303815481106147b357fe5b90600052602060002090600202016001018190555060009150505b9392505050565b505050565b600080823b905060008111915050919050565b60606147fc84846000856149bf565b90509392505050565b600073ffffffffffffffffffffffffffffffffffffffff168273ffffffffffffffffffffffffffffffffffffffff16141561488b576040517f08c379a0000000000000000000000000000000000000000000000000000000008152600401808060200182810382526026815260200180614eb56026913960400191505060405180910390fd5b61489481612dbb565b156148ea576040517f08c379a0000000000000000000000000000000000000000000000000000000008152600401808060200182810382526027815260200180614f746027913960400191505060405180910390fd5b6148f660008383613831565b61494781600160008573ffffffffffffffffffffffffffffffffffffffff1673ffffffffffffffffffffffffffffffffffffffff16815260200190815260200160002061385090919063ffffffff16565b5061495e8183600261386a9092919063ffffffff16565b50808273ffffffffffffffffffffffffffffffffffffffff16600073ffffffffffffffffffffffffffffffffffffffff167fddf252ad1be2c89b69c2b068fc378daa952ba7f163c4a11628f55a4df523b3ef60405160405180910390a45050565b606082471015614a1a576040517f08c379a0000000000000000000000000000000000000000000000000000000008152600401808060200182810382526026815260200180614db36026913960400191505060405180910390fd5b614a23856147da565b614a95576040517f08c379a000000000000000000000000000000000000000000000000000000000815260040180806020018281038252601d8152602001807f416464726573733a2063616c6c20746f206e6f6e2d636f6e747261637400000081525060200191505060405180910390fd5b600060608673ffffffffffffffffffffffffffffffffffffffff1685876040518082805190602001908083835b60208310614ae55780518252602082019150602081019050602083039250614ac2565b6001836020036101000a03801982511681845116808217855250505050505090500191505060006040518083038185875af1925050503d8060008114614b47576040519150601f19603f3d011682016040523d82523d6000602084013e614b4c565b606091505b5091509150614b5c828286614b68565b92505050949350505050565b60608315614b7857829050614c2d565b600083511115614b8b5782518084602001fd5b816040517f08c379a00000000000000000000000000000000000000000000000000000000081526004018080602001828103825283818151815260200191508051906020019080838360005b83811015614bf2578082015181840152602081019050614bd7565b50505050905090810190601f168015614c1f5780820380516001836020036101000a031916815260200191505b509250505060405180910390fd5b939250505056fe456e756d657261626c655365743a20696e646578206f7574206f6620626f756e6473416363657373436f6e74726f6c3a2073656e646572206d75737420626520616e2061646d696e20746f206772616e7445524337323142617463683a207472616e73666572206f6620746f6b656e2074686174206973206e6f74206f776e506978656c733a204d616b65207375726520706f736974696f6e20657869737473206265666f72652072657475726e696e6720636f6c6f72506978656c733a204d617820706978656c73206d7573742062652067726561746572207468616e203020616e6420746f74616c2063757272656e7420737570706c7945524337323142617463683a2062616c616e636520717565727920666f7220746865207a65726f2061646472657373506978656c733a205f6d696e74426174636820746f207a65726f206164647265737345524337323142617463683a205f7472616e736665724261746368206f6620746f6b656e2074686174206973206e6f74206f776e416464726573733a20696e73756666696369656e742062616c616e636520666f722063616c6c506978656c733a20506f736974696f6e206d7573742062652070726f7669646564416363657373436f6e74726f6c3a2073656e646572206d75737420626520616e2061646d696e20746f207265766f6b6545524337323142617463683a20617070726f76652063616c6c6572206973206e6f74206f776e6572206e6f7220617070726f76656420666f7220616c6c45524337323142617463683a205f6d696e74426174636820746f6b656e20616c7265616479206d696e746564456e756d657261626c654d61703a20696e646578206f7574206f6620626f756e647345524337323142617463683a205f6d696e7420746f20746865207a65726f206164647265737345524337323142617463683a207472616e73666572426174636820746f206e6f6e20455243373231526563656976657220696d706c656d656e74657245524337323142617463683a206f776e657220717565727920666f72206e6f6e6578697374656e7420746f6b656e4552433732314d657461646174613a2055524920717565727920666f72206e6f6e6578697374656e7420746f6b656e45524337323142617463683a205f6d696e7420746f6b656e20616c7265616479206d696e746564506978656c733a204d75737420626520612076616c69642048455820636f6c6f722076616c756545524337323142617463683a206f70657261746f7220717565727920666f72206e6f6e6578697374656e7420746f6b656e45524337323142617463683a20617070726f76616c20746f2063757272656e74206f776e6572506978656c733a204f6e6c7920746865206f776e65722063616e206368616e676520636f6c6f7245524337323142617463683a20617070726f76656420717565727920666f72206e6f6e6578697374656e7420746f6b656e45524337323142617463683a207472616e7366657220746f20746865207a65726f2061646472657373506978656c733a205f706f736974696f6e7320616e64205f636f6c6f7273206c656e677468206d69736d6174636845524337323142617463683a205f7472616e73666572426174636820746f207a65726f2061646472657373506978656c733a2043616e6e6f7420637265617465206d6f7265207468616e206d617820616d6f756e74206f6620706978656c7345524337323142617463683a207472616e736665722063616c6c6572206973206e6f74206f776e6572206e6f7220617070726f76656445524337323142617463683a207472616e7366657220746f206e6f6e20455243373231526563656976657220696d706c656d656e746572416363657373436f6e74726f6c3a2063616e206f6e6c792072656e6f756e636520726f6c657320666f722073656c66a2646970667358221220d06d9ee5940838e3b49341059a3f88eca729959f5d79987a81ced3d722e910cc64736f6c63430006020033506978656c733a204d617820706978656c73206d7573742062652067726561746572207468616e2030",
  "source": "pragma solidity >=0.6.0 <0.7.3;\r\n\r\nimport \"./ERC721Batch.sol\";\r\nimport \"@openzeppelin/contracts/access/AccessControl.sol\";\r\n\r\n/**\r\n * @title Pixels\r\n * Pixels - non-fungible pixels\r\n */\r\n\r\ncontract Pixels is ERC721Batch, AccessControl {\r\n    bytes32 public constant MINTER_ROLE = keccak256(\"MINTER_ROLE\");\r\n\r\n    uint48 public maxPixels;\r\n\r\n    mapping(uint256 => bytes6) public colors;\r\n\r\n    event ColorPixel(uint256 _position, bytes6 _color);\r\n    event ColorPixels(uint256[] _positions, bytes6[] _colors);\r\n\r\n    /**\r\n     * @dev Contract Constructor, calls ERC721Batch constructor and sets name and symbol\r\n     */\r\n    constructor(uint48 _maxPixels) public ERC721Batch(\"PixelWorld\", \"PW\") {\r\n        require(_maxPixels > 0, \"Pixels: Max pixels must be greater than 0\");\r\n\r\n        maxPixels = _maxPixels;\r\n\r\n        _setupRole(DEFAULT_ADMIN_ROLE, msg.sender);\r\n        _setupRole(MINTER_ROLE, msg.sender);\r\n    }\r\n\r\n    /**\r\n     * @dev Create new pixel, deffer to ERC721Batch\r\n     * @param _position pixel position in the world / id\r\n     * @param _owner owner of the newly created pixel\r\n     */\r\n    function createPixel(address _owner, uint256 _position)\r\n        public\r\n        virtual\r\n        onlyMinter\r\n    {\r\n        require(_position > 0, \"Pixels: Position must be provided\");\r\n        require(\r\n            totalSupply() + 1 <= maxPixels,\r\n            \"Pixels: Cannot create more than max amount of pixels\"\r\n        );\r\n\r\n        _safeMint(_owner, _position);\r\n    }\r\n\r\n    /**\r\n     * @dev Create multiple pixel positions, deffer to ERC721Batch\r\n     * @param _positions array of pixel positions\r\n     * @param _owner owner of the newly created pixel\r\n     */\r\n    function createPixels(address _owner, uint256[] memory _positions)\r\n        public\r\n        virtual\r\n        onlyMinter\r\n    {\r\n        require(\r\n            totalSupply() + _positions.length <= maxPixels,\r\n            \"Pixels: Cannot create more than max amount of pixels\"\r\n        );\r\n\r\n        _safeMintBatch(_owner, _positions, \"\");\r\n    }\r\n\r\n    /**\r\n     * @dev Get pixel color\r\n     * @param _position pixel position in the world / id\r\n     */\r\n    function getColor(uint256 _position) public view returns (bytes6) {\r\n        require(\r\n            exists(_position),\r\n            \"Pixels: Make sure position exists before returning color\"\r\n        );\r\n\r\n        return colors[_position];\r\n    }\r\n\r\n    /**\r\n     * @dev Validate and set pixel color\r\n     * @param _position pixel position in the world / id\r\n     * @param _color pixel HEX color\r\n     */\r\n    function setColor(uint256 _position, bytes6 _color) public {\r\n        require(\r\n            msg.sender == ownerOf(_position),\r\n            \"Pixels: Only the owner can change color\"\r\n        );\r\n        require(\r\n            validateColor(_color),\r\n            \"Pixels: Must be a valid HEX color value\"\r\n        );\r\n\r\n        colors[_position] = _color;\r\n\r\n        emit ColorPixel(_position, _color);\r\n    }\r\n\r\n    /**\r\n     * @dev Validate and set pixel color\r\n     * @param _positions pixel positions in the world / id\r\n     * @param _colors pixels HEX color\r\n     */\r\n    function setColors(uint256[] memory _positions, bytes6[] memory _colors)\r\n        public\r\n    {\r\n        require(\r\n            _positions.length == _colors.length,\r\n            \"Pixels: _positions and _colors length mismatch\"\r\n        );\r\n\r\n        for (uint256 i = 0; i < _positions.length; i++) {\r\n            uint256 _position = _positions[i];\r\n            bytes6 _color = _colors[i];\r\n\r\n            require(\r\n                msg.sender == ownerOf(_position),\r\n                \"Pixels: Only the owner can change color\"\r\n            );\r\n            require(\r\n                validateColor(_color),\r\n                \"Pixels: Must be a valid HEX color value\"\r\n            );\r\n\r\n            colors[_position] = _color;\r\n        }\r\n\r\n        emit ColorPixels(_positions, _colors);\r\n    }\r\n\r\n    /**\r\n     * @dev expose _exists to the public\r\n     * @param _position pixel position in the world / id\r\n     */\r\n    function exists(uint256 _position) public view returns (bool) {\r\n        return _exists(_position);\r\n    }\r\n\r\n    /**\r\n     * @dev set maxPixels\r\n     * @param _maxPixels new maximum number of pixels\r\n     */\r\n    function setMaxPixels(uint48 _maxPixels) public onlyAdmin {\r\n        require(\r\n            _maxPixels > 0 && _maxPixels > totalSupply(),\r\n            \"Pixels: Max pixels must be greater than 0 and total current supply\"\r\n        );\r\n\r\n        maxPixels = _maxPixels;\r\n    }\r\n\r\n    /**\r\n     * @dev validate hex color - https://ethereum.stackexchange.com/questions/50369/string-validation-solidity-alpha-numeric-and-length\r\n     * @param _color color value to validate\r\n     */\r\n    function validateColor(bytes6 _color) private pure returns (bool) {\r\n        for (uint8 i; i < _color.length; i++) {\r\n            bytes1 char = _color[i];\r\n\r\n            if (\r\n                !(char >= 0x30 && char <= 0x39) && //9-0\r\n                !(char >= 0x41 && char <= 0x5A) && //A-Z\r\n                !(char >= 0x61 && char <= 0x7A) //a-z\r\n            ) return false;\r\n        }\r\n\r\n        return true;\r\n    }\r\n\r\n    /********\r\n     * ACL\r\n     */\r\n\r\n    /**\r\n     * @dev add minter\r\n     * @param _account address to add as the new minter\r\n     */\r\n    function addMinter(address _account) public virtual onlyAdmin {\r\n        grantRole(MINTER_ROLE, _account);\r\n    }\r\n\r\n    /**\r\n     * @dev remove minter\r\n     * @param _account address to remove as minter\r\n     */\r\n    function removeMinter(address _account) public virtual onlyAdmin {\r\n        revokeRole(MINTER_ROLE, _account);\r\n    }\r\n\r\n    /**\r\n     * @dev Restricted to members of the admin role.\r\n     */\r\n    modifier onlyAdmin() {\r\n        require(\r\n            hasRole(DEFAULT_ADMIN_ROLE, msg.sender),\r\n            \"Pixels: Restricted to admins.\"\r\n        );\r\n        _;\r\n    }\r\n\r\n    /**\r\n     * @dev Restricted to members of the minter role.\r\n     */\r\n    modifier onlyMinter() {\r\n        require(\r\n            hasRole(MINTER_ROLE, msg.sender),\r\n            \"Pixels: Restricted to minters.\"\r\n        );\r\n        _;\r\n    }\r\n}\r\n",
  "sourcePath": "D:\\server\\PixelWorld\\contracts\\Pixels.sol",
  "compiler": {
    "name": "solc",
    "version": "0.6.2+commit.bacdbe57.Emscripten.clang"
  },
  "schemaVersion": "3.4.3",
  "updatedAt": "2021-09-18T14:53:20.198Z",
  "networkType": "ethereum",
  "devdoc": {
    "methods": {
      "addMinter(address)": {
        "details": "add minter",
        "params": {
          "_account": "address to add as the new minter"
        }
      },
      "approve(address,uint256)": {
        "details": "See {IERC721-approve}."
      },
      "balanceOf(address)": {
        "details": "See {IERC721-balanceOf}."
      },
      "baseURI()": {
        "details": "Returns the base URI set via {_setBaseURI}. This will be automatically added as a prefix in {tokenURI} to each token's URI, or to the token ID if no specific URI is set for that token ID."
      },
      "constructor": {
        "details": "Contract Constructor, calls ERC721Batch constructor and sets name and symbol"
      },
      "createPixel(address,uint256)": {
        "details": "Create new pixel, deffer to ERC721Batch",
        "params": {
          "_owner": "owner of the newly created pixel",
          "_position": "pixel position in the world / id"
        }
      },
      "createPixels(address,uint256[])": {
        "details": "Create multiple pixel positions, deffer to ERC721Batch",
        "params": {
          "_owner": "owner of the newly created pixel",
          "_positions": "array of pixel positions"
        }
      },
      "exists(uint256)": {
        "details": "expose _exists to the public",
        "params": {
          "_position": "pixel position in the world / id"
        }
      },
      "getApproved(uint256)": {
        "details": "See {IERC721-getApproved}."
      },
      "getColor(uint256)": {
        "details": "Get pixel color",
        "params": {
          "_position": "pixel position in the world / id"
        }
      },
      "getRoleAdmin(bytes32)": {
        "details": "Returns the admin role that controls `role`. See {grantRole} and {revokeRole}.     * To change a role's admin, use {_setRoleAdmin}."
      },
      "getRoleMember(bytes32,uint256)": {
        "details": "Returns one of the accounts that have `role`. `index` must be a value between 0 and {getRoleMemberCount}, non-inclusive.     * Role bearers are not sorted in any particular way, and their ordering may change at any point.     * WARNING: When using {getRoleMember} and {getRoleMemberCount}, make sure you perform all queries on the same block. See the following https://forum.openzeppelin.com/t/iterating-over-elements-on-enumerableset-in-openzeppelin-contracts/2296[forum post] for more information."
      },
      "getRoleMemberCount(bytes32)": {
        "details": "Returns the number of accounts that have `role`. Can be used together with {getRoleMember} to enumerate all bearers of a role."
      },
      "grantRole(bytes32,address)": {
        "details": "Grants `role` to `account`.     * If `account` had not been already granted `role`, emits a {RoleGranted} event.     * Requirements:     * - the caller must have ``role``'s admin role."
      },
      "hasRole(bytes32,address)": {
        "details": "Returns `true` if `account` has been granted `role`."
      },
      "isApprovedForAll(address,address)": {
        "details": "See {IERC721-isApprovedForAll}."
      },
      "name()": {
        "details": "See {IERC721Metadata-name}."
      },
      "ownerOf(uint256)": {
        "details": "See {IERC721-ownerOf}."
      },
      "removeMinter(address)": {
        "details": "remove minter",
        "params": {
          "_account": "address to remove as minter"
        }
      },
      "renounceRole(bytes32,address)": {
        "details": "Revokes `role` from the calling account.     * Roles are often managed via {grantRole} and {revokeRole}: this function's purpose is to provide a mechanism for accounts to lose their privileges if they are compromised (such as when a trusted device is misplaced).     * If the calling account had been granted `role`, emits a {RoleRevoked} event.     * Requirements:     * - the caller must be `account`."
      },
      "revokeRole(bytes32,address)": {
        "details": "Revokes `role` from `account`.     * If `account` had been granted `role`, emits a {RoleRevoked} event.     * Requirements:     * - the caller must have ``role``'s admin role."
      },
      "safeBatchTransferFrom(address,address,uint256[])": {
        "details": "See {IERC721-safeBatchTransferFrom}."
      },
      "safeBatchTransferFrom(address,address,uint256[],bytes)": {
        "details": "See {IERC1155-safeBatchTransferFrom}."
      },
      "safeTransferFrom(address,address,uint256)": {
        "details": "See {IERC721-safeTransferFrom}."
      },
      "safeTransferFrom(address,address,uint256,bytes)": {
        "details": "See {IERC721-safeTransferFrom}."
      },
      "setApprovalForAll(address,bool)": {
        "details": "See {IERC721-setApprovalForAll}."
      },
      "setColor(uint256,bytes6)": {
        "details": "Validate and set pixel color",
        "params": {
          "_color": "pixel HEX color",
          "_position": "pixel position in the world / id"
        }
      },
      "setColors(uint256[],bytes6[])": {
        "details": "Validate and set pixel color",
        "params": {
          "_colors": "pixels HEX color",
          "_positions": "pixel positions in the world / id"
        }
      },
      "setMaxPixels(uint48)": {
        "details": "set maxPixels",
        "params": {
          "_maxPixels": "new maximum number of pixels"
        }
      },
      "supportsInterface(bytes4)": {
        "details": "See {IERC165-supportsInterface}.     * Time complexity O(1), guaranteed to always use less than 30 000 gas."
      },
      "symbol()": {
        "details": "See {IERC721Metadata-symbol}."
      },
      "tokenByIndex(uint256)": {
        "details": "See {IERC721Enumerable-tokenByIndex}."
      },
      "tokenOfOwnerByIndex(address,uint256)": {
        "details": "See {IERC721Enumerable-tokenOfOwnerByIndex}."
      },
      "tokenURI(uint256)": {
        "details": "See {IERC721Metadata-tokenURI}."
      },
      "totalSupply()": {
        "details": "See {IERC721Enumerable-totalSupply}."
      },
      "transferFrom(address,address,uint256)": {
        "details": "See {IERC721-transferFrom}."
      }
    },
    "title": "Pixels Pixels - non-fungible pixels"
  },
  "userdoc": {
    "methods": {}
  }
}